:10000000AAC2C5C2C4C2C3C2C2C2C1C2C0C2C0C2E7
:10001000BEC2BDC2BCC2BBC2BAC2D8D6D3FFFFD615
:1000200010D608D610FF20CB10D608DC08FF10B978
:1000300008FF10CB08FF20B910FF10AB08FF20C04D
:1000400010FF20C710FF20C410C008B953D653DCDE
:1000500053E008D810DC10FF20D610FF20CB10D0C2
:1000600010C710FF10CB08FF20B910FF10AB08FF1E
:1000700020C010FF20C710FF20C410C008B953D6FD
:1000800053DC53E008D810DC10FF20D610FF20CB43
:1000900010D010C710FF10FF10DC10DA10D810D3EA
:1000A00008D610FF20BD10C010CB10FF20C010CB11
:1000B00010D010FF10DC10DA10D810D308D610FFC3
:1000C00020E510FF20E510E508FF10DC10DA10D85D
:1000D00010D308D610FF20BD10C010CB10FF20C0D9
:1000E00010CB10D010FF10D308FF20D010FF10CB82
:1000F00008FF08FF10DC10DA10D810D308D610FF64
:1001000020BD10C010CB10FF20C010CB10D010FFAE
:1001100010DC10DA10D810D308D610FF20E510FF3D
:1001200020E510E508FF08FF10DC10DA10D810D326
:1001300008D610FF20BD10C010CB10FF20C010CB80
:1001400010D010FF10D308FF20D010FF10CB08FFF5
:1001500010CB10CB08CB10FF20CB10D008D610CB83
:1001600008C010B908FF10CB10CB08CB10FF20CB74
:1001700010D010D610FF04CB10CB08CB10FF20CB33
:1001800010D008D610CB08C010B908FF10D610D672
:1001900008D610FF20CB10D608DC08FF10B908FFE6
:1001A00010CB08FF20B910FF10AB08FF20C010FFD4
:1001B00020C710FF20C410C008B953D653DC53E049
:1001C00008D810DC10FF20D610FF20CB10D010C7AD
:1001D00010FF10CB08FF20B910FF10AB08FF20C0A4
:1001E00010FF20C710FF20C410C008B953D653DC3D
:1001F00053E008D810DC10FF20D610FF20CB10D021
:1002000010C710FF10D610CB08B910FF10BD08C0E2
:1002100010D808D810C008FF10C753E053E053E0CF
:1002200053DC53D853D610CB08C010B908FF10D6F2
:1002300010CB08B910FF10BD08C010D808D810C0E6
:1002400008FF10C710D808D810D853D653D053CBB6
:1002500010B908B9109508FF10D610CB08B910FFD7
:1002600010BD08C010D808D810C008FF10C753E050
:1002700053E053E053DC53D853D610CB08C010B929
:1002800008FF10D610CB08B910FF10BD08C010D859
:1002900008D810C008FF10C710D808D810D853D6F7
:1002A00053D053CB10B908B9109508FF10CB10CB21
:1002B00008CB10FF20CB10D008D610CB08C010B947
:1002C00008FF10CB10CB08CB10FF20CB10D010D6DE
:1002D00010FF04CB10CB08CB10FF20CB10D008D6DA
:1002E00010CB08C010B908FF10D610D608D610FFE2
:1002F00020CB10D608DC08FF10B908FF10D610CBB1
:1003000008B910FF10BD08C010D808D810C008FFE9
:1003100010C753E053E053E053DC53D853D610CB0F
:1003200008C010B908FF10D610CB08B910FF10BDD7
:1003300008C010D808D810C008FF10C710D808D8B7
:1003400010D853D653D053CB10B908B9109508FF25
:1003500010CB08FF20B9A2AB08C053C753C053BD90
:1003600053C453C008AB10A110AB1CFFFFB004B0C6
:1003700004B01CB008AB08A108AB08B008B904C0B1
:1003800004C004C01CC008B908B008B908C008C43B
:1003900004CB02B01CD008CB08C408C004B904AB1D
:1003A0001CB908C008C4089504C408C008B902B044
:1003B00004B004B01CB008AB08A108AB08B008B981
:1003C00004C004C004C01CC008B908B008B908C003
:1003D00008C404CB02B01CD008CB08C408C004B9C0
:1003E00004AB1CB908C008C408CB04AB02FFFFA1D2
:1003F00008C708C008B908A104FF10A110A110A1E6
:1004000008C708C008B908AB04FF10AB08CB08C781
:1004100008C008B404FF10D608D008CB08C008C72D
:1004200004FF10A108C708C008B908A104FF08A16B
:1004300008A108C708C008B908AB04FF10AB08AB97
:1004400008CB08C708C008D008D008D008D008D604
:1004500008D008CB08C008B904FF10C708C708C7F0
:1004600004C708C708C704C708D008B952C010C7D6
:1004700004FF10CB08CB08CB52CB10CB08C708C762
:1004800008C710C710C708C008C008B908C004D002
:1004900004C708C708C704C708C708C704C708D0E7
:1004A00008B952C010C704FF10CB08CB08CB52CB01
:1004B00010CB08C708C708C710C710D008D008CB92
:1004C00008C008B92AFF08FFFFAB04AB04C704C784
:1004D00004C004B904B404AB04A104AB04B404B96B
:1004E00004C004C702FF10AB04AB04C704C704C0B8
:1004F00004B904B404AB04A104AB04B404B904C04B
:1005000004C702FF08C704CB04C004C704CB04D04F
:1005100004D604C704C004B904AB04B404B904C0CD
:1005200002B904C004C702CB04C704C704C004B99D
:1005300004B404AB02B908B408AB04C002B904C0E7
:1005400004C704CB04D004D604C704C004B904B45F
:1005500004AB02FFFF0011241FBECFE5D1E0DEBFD8
:10056000CDBF10E0A0E6B0E0E6EEFFE003C0C89526
:1005700031960D92A236B107D1F710E0A2E6B0E0B5
:1005800001C01D92AC36B107E1F7B6D42AC538CD0B
:100590001F920F920FB60F9211248F939F93809109
:1005A000600082BF82B78F3F21F085B390E2892738
:1005B00085BB9F918F910F900FBE0F901F90189544
:1005C00030916B0020E040E060E074E289B38F700E
:1005D000831779F08F3069F0862F972F0197F1F705
:1005E00089B3831731F08F3021F0382F282F41E065
:1005F00003C0382F413051F7321741F32B3049F007
:100600002C3018F4273011F704C0822F8D5082301F
:10061000E8F630936B002B3071F02C3018F4273053
:1006200071F40BC02D3019F02E3049F402C081E076
:10063000089580E0089582E0089583E0089584E0BD
:1006400008958B3071F08C3018F4873071F40BC042
:100650008D3019F08E3049F402C081E0089580E0B9
:10066000089582E0089583E0089584E008951F933B
:100670008BB38F608BBB8BB38F708BBB9BB3809125
:1006800062008295807F892B8BBB1FE09BB380919A
:1006900062008295807F892B8BBB92DF1BBB8130F0
:1006A00029F0813038F0823091F409C080916200E5
:1006B0008F3019F410926200E9CF8F5F05C08091EE
:1006C0006200882319F3815080936200DFCF83306A
:1006D000E9F680E090E01F910895FF920F931F9339
:1006E0008FE08BBB8BB38F628BBB88E893E12CE5EB
:1006F00030E0E22FF32F3197F1F70197D1F760DF68
:10070000F82E5EDF082F5CDF182F5ADFF0926300AF
:100710000093640010936500809366008FE08BBBAC
:1007200080E090E01F910F91FF9008958FE08BBBC8
:100730008BB38F648BBB89B38B3071F08C3018F422
:10074000873071F40BC08D3019F08E3049F402C03F
:1007500081E007C080E005C082E003C083E001C003
:1007600084E0E82FF0E0E65EFF4FC895E02DE093CF
:100770006000833001F78FE08BBB8CED95E02CE5BA
:1007800030E0E22FF32F3197F1F70197D1F780E0B6
:1007900090E008951F938FE08BBB40E250E0A9E901
:1007A000B3E06CE570E01FEF89B38B3071F08C30F3
:1007B00018F4873071F40BC08D3019F08E3049F485
:1007C00002C031E007C030E005C032E003C033E0D2
:1007D00001C034E041505040E42FF52FC895802DE2
:1007E0004F5F5F4F8093600080916000853E19F4F9
:1007F0008BB3806F8BBB80916000803E19F48BB30C
:10080000806E8BBB809160008C3D19F48BB3806D42
:100810008BBB809160008A3D19F48BB3806C8BBBDD
:1008200080916000883D19F48BB3806B8BBB809105
:100830006000863D19F48BB3806A8BBB80916000A9
:10084000833D19F48BB3806B8BBB80916000803D3E
:1008500019F48BB3806A8BBB809160008B3C19F4D8
:100860008BB380698BBB80916000873C09F4DF9A71
:1008700080916000843C19F48BB380678BBB8091BE
:100880006000803C19F48BB380668BBB8091600064
:100890008D3B19F48BB380658BBB80916000893BE5
:1008A00009F4DE9A809160008B3A19F48BB380636F
:1008B0008BBB80916000813A09F4DD9A80916000E1
:1008C000853909F4DC9AE42FF52FC895202D2130C5
:1008D00049F480EC9DE5E62FF72F3197F1F701976A
:1008E000D1F769C02C3149F488E99AE3E62FF72F54
:1008F0003197F1F70197D1F75EC0223049F480EECD
:100900009EE2E62FF72F3197F1F70197D1F753C009
:100910002A3249F488E293E2E62FF72F3197F1F774
:100920000197D1F748C0243049F480E797E1E62FDA
:10093000F72F3197F1F70197D1F73DC0283049F4EF
:1009400088EB9BE0E62FF72F3197F1F70197D1F76E
:1009500032C0223A49F48AEC98E0E62FF72F31971B
:10096000F1F70197D1F727C0233549F480ED97E0DF
:10097000E62FF72F3197F1F70197D1F71CC02031FF
:1009800049F48CED95E0E62FF72F3197F1F70197B9
:10099000D1F711C0203249F48EEE92E0E62FF72F06
:1009A0003197F1F70197D1F706C0243621F48A2F49
:1009B0009B2F0197F1F7809160008F3F49F01093D2
:1009C00060008BB38F708BBB8A2F9B2F0197F1F741
:1009D000333029F04E5F5F4F2F3F09F0E5CE80E0C6
:1009E00090E01F9108951F93CF93DF938FE08BBB0F
:1009F00050E06CE570E01FEFC0E0D2E189B38B30CE
:100A000071F08C3018F4873071F40BC08D3019F010
:100A10008E3049F402C041E007C040E005C042E02A
:100A200003C043E001C044E0252F30E0220F331F14
:100A3000E22FF32FE359FC4FC895E02DE0936000BF
:100A400080916000803D19F48BB3806F8BBB8091E7
:100A500060008B3C19F48BB380638BBB809160008A
:100A6000843C19F48BB380668BBB80916000803C22
:100A700009F4DC9A80916000893B09F4DD9A809149
:100A80006000803B09F4DE9A809160008B3A09F4A3
:100A9000DF9A80916000813A19F48BB3806C8BBB34
:100AA00022593C4FE22FF32FC895202D213049F4D5
:100AB00080E29EE4A62FB72F1197F1F70197D1F7A7
:100AC00036C02C3149F484ED90E3A62FB72F11974F
:100AD000F1F70197D1F72BC0223049F480E197E27A
:100AE000A62FB72F1197F1F70197D1F720C0243027
:100AF00049F488E893E1A62FB72F1197F1F70197F2
:100B0000D1F715C0283049F484EC99E0A62FB72F0F
:100B10001197F1F70197D1F70AC0203141F482EE25
:100B200094E0A62FB72F1197F1F70197D1F7809195
:100B300060008F3F49F0109360008BB38F708BBBC8
:100B40008C2F9D2F0197F1F7433021F02F3F11F0AB
:100B50005F5F54CF8FE08BBB80E090E0DF91CF915F
:100B60001F9108951F93CF93DF938FE08BBB70E0AD
:100B70004CE550E01FEFC0E0D2E189B38B3071F05B
:100B80008C3018F4873071F40BC08D3019F08E3032
:100B900049F402C061E007C060E005C062E003C044
:100BA00063E001C064E0272F30E0220F331FE22F03
:100BB000F32FE151FC4FC895E02DE0936000809148
:100BC0006000863D19F48BB3806F8BBB8091600011
:100BD000803D19F48BB380638BBB809160008B3CAC
:100BE00009F4DC9A80916000873C09F4DD9A8091D9
:100BF0006000803C19F48BB380668BBB80916000F1
:100C0000893B09F4DE9A80916000843B09F4DF9A05
:100C1000809160008B3A19F48BB3806C8BBB809110
:100C20006000813A19F48BB3806E8BBB20513C4F2E
:100C3000E22FF32FC895202D213049F480E29EE465
:100C4000A42FB52F1197F1F70197D1F741C02230AA
:100C500049F480E197E2A42FB52F1197F1F701979E
:100C6000D1F736C02A3249F48CE49DE1A42FB52F88
:100C70001197F1F70197D1F72BC0243049F488E898
:100C800093E1A42FB52F1197F1F70197D1F720C069
:100C9000223549F486EA9EE0A42FB52F1197F1F78B
:100CA0000197D1F715C0283049F484EC99E0A42FBE
:100CB000B52F1197F1F70197D1F70AC0203141F410
:100CC00082EE94E0A42FB52F1197F1F70197D1F799
:100CD000809160008F3F49F0109360008BB38F705C
:100CE0008BBB8C2F9D2F0197F1F7633021F02F3FA5
:100CF00011F07F5F42CF80E090E0DF91CF911F91B4
:100D000008951F93CF93DF938FE08BBB50E06CE58A
:100D100070E01FEFC9E9D3E089B38B3071F08C30FC
:100D200018F4873071F40BC08D3019F08E3049F40F
:100D300002C041E007C040E005C042E003C043E01C
:100D400001C044E0252F30E0220F331FE22FF32FA4
:100D5000E753FB4FC895E02DE09360008091600061
:100D6000863D19F48BB3806F8BBB80916000803D12
:100D700019F48BB380638BBB809160008B3C09F4CA
:100D8000DC9A80916000873C09F4DD9A80916000D4
:100D9000803C19F48BB380668BBB80916000893BEB
:100DA00009F4DE9A80916000843B09F4DF9A809117
:100DB00060008B3A19F48BB3806C8BBB8091600020
:100DC000813A19F48BB3806E8BBB26533B4FE22FD5
:100DD000F32FC895202D213049F480EB96E3A62F00
:100DE000B72F1197F1F70197D1F72BC0223049F4B3
:100DF00088E59BE1A62FB72F1197F1F70197D1F75F
:100E000020C0243049F48CEA9DE0A62FB72F11971B
:100E1000F1F70197D1F715C0283049F486ED96E037
:100E2000A62FB72F1197F1F70197D1F70AC02031FC
:100E300041F480E793E0A62FB72F1197F1F70197C0
:100E4000D1F7809160008F3F49F0109360008BB321
:100E50008F708BBB8C2F9D2F0197F1F7433021F0C2
:100E60002F3F11F05F5F58CF80E090E0DF91CF918E
:100E70001F910895EF92FF920F931F938FE08BBB0A
:100E80008BB38F698BBB10E0AFE9EA2EFFE3FF2E37
:100E90000FECEBBA95DB813081F0813018F08230B5
:100EA000F1F41BC0FBBA8CDB182F813021F08130AC
:100EB00058F470DC16C097DDECCF0BBB81DB182F2C
:100EC000813039F0813018F0123059F404C04ADE14
:100ED00008C017DFDECF2ADCDCCF28DC02C083307D
:100EE00011F01330B1F68FE08BBB80E090E01F91E2
:100EF0000F91FF90EF900895FF920F931F93CF9360
:100F0000DF93789483E083BF89B7826089BF8FEFD6
:100F100084BB15BA80EF8ABB8FE08BBBFF24FA94A9
:100F200011E00FE0C0E0D4EB8BB3FBBA49DB90914A
:100F30006300891711F41093670042DB90916400FD
:100F4000891711F4109368003BDB909165008917B5
:100F500011F41093690034DB90916600891711F445
:100F600010936A008BB38F708BBB1EC08BB38066EF
:100F70008BBB8BB38F768BBB23DB813049F0813009
:100F800028F0823039F0833079F406C070DB0CC071
:100F900071DF0AC0A2DB08C01092670010926800DF
:100FA0001092690010926A0080916700882361F0B6
:100FB00080916800882341F080916900882321F0A6
:100FC00080916A00882391F60BBB20E08C2F9D2F27
:100FD0000197F1F78BB380958BBB2F5F2730B1F76B
:060FE000A3CFF894FFCF3F
:020FE600FF000A
:00000001FF
